{
  "_format": "hh-sol-artifact-1",
  "contractName": "Wallet",
  "sourceName": "contracts/Wallet.sol",
  "abi": [
    {
      "inputs": [],
      "stateMutability": "payable",
      "type": "constructor"
    },
    {
      "inputs": [],
      "name": "deposit",
      "outputs": [],
      "stateMutability": "payable",
      "type": "function"
    },
    {
      "inputs": [],
      "name": "getBalances",
      "outputs": [
        {
          "internalType": "uint256",
          "name": "",
          "type": "uint256"
        }
      ],
      "stateMutability": "view",
      "type": "function"
    },
    {
      "inputs": [],
      "name": "getOwner",
      "outputs": [
        {
          "internalType": "address",
          "name": "",
          "type": "address"
        }
      ],
      "stateMutability": "view",
      "type": "function"
    },
    {
      "inputs": [],
      "name": "getTransaction",
      "outputs": [
        {
          "components": [
            {
              "internalType": "address",
              "name": "from",
              "type": "address"
            },
            {
              "internalType": "address",
              "name": "to",
              "type": "address"
            },
            {
              "internalType": "string",
              "name": "operation",
              "type": "string"
            },
            {
              "internalType": "uint256",
              "name": "amount",
              "type": "uint256"
            },
            {
              "internalType": "uint256",
              "name": "timestamp",
              "type": "uint256"
            }
          ],
          "internalType": "struct Wallet.transaction[]",
          "name": "",
          "type": "tuple[]"
        }
      ],
      "stateMutability": "view",
      "type": "function"
    },
    {
      "inputs": [],
      "name": "owner",
      "outputs": [
        {
          "internalType": "address payable",
          "name": "",
          "type": "address"
        }
      ],
      "stateMutability": "view",
      "type": "function"
    },
    {
      "inputs": [
        {
          "internalType": "address payable",
          "name": "_to",
          "type": "address"
        },
        {
          "internalType": "uint256",
          "name": "_amount",
          "type": "uint256"
        }
      ],
      "name": "transfer",
      "outputs": [],
      "stateMutability": "nonpayable",
      "type": "function"
    },
    {
      "inputs": [],
      "name": "withdraw",
      "outputs": [],
      "stateMutability": "nonpayable",
      "type": "function"
    }
  ],
  "bytecode": "0x6080604052336000806101000a81548173ffffffffffffffffffffffffffffffffffffffff021916908373ffffffffffffffffffffffffffffffffffffffff1602179055506113d9806100536000396000f3fe60806040526004361061006f5760003560e01c8063893d20e81161004e578063893d20e8146100e15780638da5cb5b1461010c578063a9059cbb14610137578063d0e30db0146101605761006f565b8062113e08146100745780633ccfd60b1461009f57806359705f81146100b6575b600080fd5b34801561008057600080fd5b5061008961016a565b604051610096919061101c565b60405180910390f35b3480156100ab57600080fd5b506100b46101b1565b005b3480156100c257600080fd5b506100cb6104f1565b6040516100d89190610f7a565b60405180910390f35b3480156100ed57600080fd5b506100f66106a2565b6040516101039190610f44565b60405180910390f35b34801561011857600080fd5b506101216106cb565b60405161012e9190610f5f565b60405180910390f35b34801561014357600080fd5b5061015e60048036038101906101599190610c85565b6106ef565b005b6101686109ec565b005b6000600260003373ffffffffffffffffffffffffffffffffffffffff1673ffffffffffffffffffffffffffffffffffffffff16815260200190815260200160002054905090565b6000600260003373ffffffffffffffffffffffffffffffffffffffff1673ffffffffffffffffffffffffffffffffffffffff1681526020019081526020016000205411610233576040517f08c379a000000000000000000000000000000000000000000000000000000000815260040161022a90610fbc565b60405180910390fd5b6000600260003373ffffffffffffffffffffffffffffffffffffffff1673ffffffffffffffffffffffffffffffffffffffff16815260200190815260200160002054905080600260003373ffffffffffffffffffffffffffffffffffffffff1673ffffffffffffffffffffffffffffffffffffffff16815260200190815260200160002060008282546102c691906110fe565b9250508190555060003373ffffffffffffffffffffffffffffffffffffffff16826040516102f390610f1a565b60006040518083038185875af1925050503d8060008114610330576040519150601f19603f3d011682016040523d82523d6000602084013e610335565b606091505b5050905080610379576040517f08c379a000000000000000000000000000000000000000000000000000000000815260040161037090610f9c565b60405180910390fd5b60016040518060a001604052803073ffffffffffffffffffffffffffffffffffffffff1681526020013373ffffffffffffffffffffffffffffffffffffffff1681526020016040518060400160405280600881526020017f5769746864726177000000000000000000000000000000000000000000000000815250815260200184815260200142815250908060018154018082558091505060019003906000526020600020906005020160009091909190915060008201518160000160006101000a81548173ffffffffffffffffffffffffffffffffffffffff021916908373ffffffffffffffffffffffffffffffffffffffff16021790555060208201518160010160006101000a81548173ffffffffffffffffffffffffffffffffffffffff021916908373ffffffffffffffffffffffffffffffffffffffff16021790555060408201518160020190805190602001906104d6929190610bb8565b50606082015181600301556080820151816004015550505050565b60606001805480602002602001604051908101604052809291908181526020016000905b8282101561069957838290600052602060002090600502016040518060a00160405290816000820160009054906101000a900473ffffffffffffffffffffffffffffffffffffffff1673ffffffffffffffffffffffffffffffffffffffff1673ffffffffffffffffffffffffffffffffffffffff1681526020016001820160009054906101000a900473ffffffffffffffffffffffffffffffffffffffff1673ffffffffffffffffffffffffffffffffffffffff1673ffffffffffffffffffffffffffffffffffffffff1681526020016002820180546105f4906111b3565b80601f0160208091040260200160405190810160405280929190818152602001828054610620906111b3565b801561066d5780601f106106425761010080835404028352916020019161066d565b820191906000526020600020905b81548152906001019060200180831161065057829003601f168201915b505050505081526020016003820154815260200160048201548152505081526020019060010190610515565b50505050905090565b60008060009054906101000a900473ffffffffffffffffffffffffffffffffffffffff16905090565b60008054906101000a900473ffffffffffffffffffffffffffffffffffffffff1681565b80600260003373ffffffffffffffffffffffffffffffffffffffff1673ffffffffffffffffffffffffffffffffffffffff168152602001908152602001600020541015610771576040517f08c379a000000000000000000000000000000000000000000000000000000000815260040161076890610ffc565b60405180910390fd5b80600260003373ffffffffffffffffffffffffffffffffffffffff1673ffffffffffffffffffffffffffffffffffffffff16815260200190815260200160002060008282546107c091906110fe565b9250508190555060008273ffffffffffffffffffffffffffffffffffffffff16826040516107ed90610f2f565b60006040518083038185875af1925050503d806000811461082a576040519150601f19603f3d011682016040523d82523d6000602084013e61082f565b606091505b5050905080610873576040517f08c379a000000000000000000000000000000000000000000000000000000000815260040161086a90610fdc565b60405180910390fd5b60016040518060a001604052803373ffffffffffffffffffffffffffffffffffffffff1681526020018573ffffffffffffffffffffffffffffffffffffffff1681526020016040518060400160405280600881526020017f5472616e73666572000000000000000000000000000000000000000000000000815250815260200184815260200142815250908060018154018082558091505060019003906000526020600020906005020160009091909190915060008201518160000160006101000a81548173ffffffffffffffffffffffffffffffffffffffff021916908373ffffffffffffffffffffffffffffffffffffffff16021790555060208201518160010160006101000a81548173ffffffffffffffffffffffffffffffffffffffff021916908373ffffffffffffffffffffffffffffffffffffffff16021790555060408201518160020190805190602001906109d0929190610bb8565b5060608201518160030155608082015181600401555050505050565b34600260003373ffffffffffffffffffffffffffffffffffffffff1673ffffffffffffffffffffffffffffffffffffffff1681526020019081526020016000206000828254610a3b91906110a8565b9250508190555060016040518060a001604052803373ffffffffffffffffffffffffffffffffffffffff1681526020013073ffffffffffffffffffffffffffffffffffffffff1681526020016040518060400160405280600781526020017f4465706f73697400000000000000000000000000000000000000000000000000815250815260200134815260200142815250908060018154018082558091505060019003906000526020600020906005020160009091909190915060008201518160000160006101000a81548173ffffffffffffffffffffffffffffffffffffffff021916908373ffffffffffffffffffffffffffffffffffffffff16021790555060208201518160010160006101000a81548173ffffffffffffffffffffffffffffffffffffffff021916908373ffffffffffffffffffffffffffffffffffffffff1602179055506040820151816002019080519060200190610b9f929190610bb8565b5060608201518160030155608082015181600401555050565b828054610bc4906111b3565b90600052602060002090601f016020900481019282610be65760008555610c2d565b82601f10610bff57805160ff1916838001178555610c2d565b82800160010185558215610c2d579182015b82811115610c2c578251825591602001919060010190610c11565b5b509050610c3a9190610c3e565b5090565b5b80821115610c57576000816000905550600101610c3f565b5090565b600081359050610c6a81611375565b92915050565b600081359050610c7f8161138c565b92915050565b60008060408385031215610c9c57610c9b611243565b5b6000610caa85828601610c5b565b9250506020610cbb85828601610c70565b9150509250929050565b6000610cd18383610e86565b905092915050565b610ce281611144565b82525050565b610cf181611132565b82525050565b610d0081611132565b82525050565b6000610d1182611047565b610d1b818561106a565b935083602082028501610d2d85611037565b8060005b85811015610d695784840389528151610d4a8582610cc5565b9450610d558361105d565b925060208a01995050600181019050610d31565b50829750879550505050505092915050565b6000610d8682611052565b610d908185611086565b9350610da0818560208601611180565b610da981611248565b840191505092915050565b6000610dc1601783611097565b9150610dcc82611259565b602082019050919050565b6000610de4601083611097565b9150610def82611282565b602082019050919050565b6000610e0760258361107b565b9150610e12826112ab565b602582019050919050565b6000610e2a600683611097565b9150610e35826112fa565b602082019050919050565b6000610e4d601c83611097565b9150610e5882611323565b602082019050919050565b6000610e7060108361107b565b9150610e7b8261134c565b601082019050919050565b600060a083016000830151610e9e6000860182610ce8565b506020830151610eb16020860182610ce8565b5060408301518482036040860152610ec98282610d7b565b9150506060830151610ede6060860182610efc565b506080830151610ef16080860182610efc565b508091505092915050565b610f0581611176565b82525050565b610f1481611176565b82525050565b6000610f2582610dfa565b9150819050919050565b6000610f3a82610e63565b9150819050919050565b6000602082019050610f596000830184610cf7565b92915050565b6000602082019050610f746000830184610cd9565b92915050565b60006020820190508181036000830152610f948184610d06565b905092915050565b60006020820190508181036000830152610fb581610db4565b9050919050565b60006020820190508181036000830152610fd581610dd7565b9050919050565b60006020820190508181036000830152610ff581610e1d565b9050919050565b6000602082019050818103600083015261101581610e40565b9050919050565b60006020820190506110316000830184610f0b565b92915050565b6000819050602082019050919050565b600081519050919050565b600081519050919050565b6000602082019050919050565b600082825260208201905092915050565b600081905092915050565b600082825260208201905092915050565b600082825260208201905092915050565b60006110b382611176565b91506110be83611176565b9250827fffffffffffffffffffffffffffffffffffffffffffffffffffffffffffffffff038211156110f3576110f26111e5565b5b828201905092915050565b600061110982611176565b915061111483611176565b925082821015611127576111266111e5565b5b828203905092915050565b600061113d82611156565b9050919050565b600061114f82611156565b9050919050565b600073ffffffffffffffffffffffffffffffffffffffff82169050919050565b6000819050919050565b60005b8381101561119e578082015181840152602081019050611183565b838111156111ad576000848401525b50505050565b600060028204905060018216806111cb57607f821691505b602082108114156111df576111de611214565b5b50919050565b7f4e487b7100000000000000000000000000000000000000000000000000000000600052601160045260246000fd5b7f4e487b7100000000000000000000000000000000000000000000000000000000600052602260045260246000fd5b600080fd5b6000601f19601f8301169050919050565b7f6661696c656420746f2072656369657665206574686572000000000000000000600082015250565b7f4163636f756e7420697320456d70747900000000000000000000000000000000600082015250565b7f616d6f756e742077697468647261776e2066726f6f6d20736d61727420636f6e60008201527f7461726374000000000000000000000000000000000000000000000000000000602082015250565b7f6661696c65640000000000000000000000000000000000000000000000000000600082015250565b7f796f7520646f6e74206861766520656e6f7567682062616c616e636500000000600082015250565b7f6574686572207472616e73666572656400000000000000000000000000000000600082015250565b61137e81611144565b811461138957600080fd5b50565b61139581611176565b81146113a057600080fd5b5056fea2646970667358221220af91a9f3d0733305cbff20139dd972b8ce5456c5e73e3c1a469ea425e816432564736f6c63430008060033",
  "linkReferences": {},
  "deployedLinkReferences": {}
}